:020000040800F2
:10000000000001204D0400089D0400089D04000824
:100010009D0400089D0400089D04000800000000E5
:100020000000000000000000000000009D04000827
:100030009D040008000000009D0400089D040008C5
:100040009D0400089D0400089D0400089D0400080C
:100050009D0400089D0400089D0400089D040008FC
:100060009D0400089D0400089D0400089D040008EC
:100070009D0400089D0400089D0400089D040008DC
:100080009D0400089D0400081902000800000000FB
:100090000000000000000000000000009D040008B7
:1000A0009D0400089D0400089D0400089D040008AC
:1000B0009D0400089D0400089D0400089D0400089C
:1000C0009D0400089D0400089D0400089D0400088C
:1000D0009D0400089D0400089D0400080000000025
:1000E0009D0400089D0400089D0400080000000015
:1000F0000000000000000000000000009D04000857
:10010000000000009D0400089D0400089D040008F4
:1001100000000000000000000000000000000000DF
:100120009D0400089D0400089D0400089D0400082B
:100130009D04000800000000000000000000000016
:100140000000000000000000000000009D04000806
:100150009D0400089D0400089D0400089D040008FB
:100160009D0400089D04000800000000000000003D
:10017000000000000000000000000000000000007F
:10018000000000009D0400080000000000000000C6
:040190009D040008C2
:1001940010B5054C237833B9044B13B10448AFF3BD
:1001A40000800123237010BD000000200000000027
:1001B400E804000808B5034B1BB103490348AFF337
:1001C400008008BD0000000004000020E8040008CE
:1001D40010B582B000248DF800408DF80140054B25
:1001E4000193684600F024F8012000F08DF82046C1
:1001F40002B010BD0000A040044B1B6813F0020FB6
:1002040003D0024BDA6C024B1A60704700200140A5
:100214001C00002008B5FFF7EFFF08BD034AD2F821
:10022400883043F47003C2F88830704700ED00E072
:10023400324A536C43F480735364A2F58C3293684E
:1002440043F0010393600378002B2CD113465268CA
:1002540022F080725A605A6822F000725A60437821
:10026400012B44D023B9264A936843F002039360D8
:10027400234BDA6A22F48012DA62DA6A22F4001278
:10028400DA62DA6A22F48002DA62DA6A22F40002BA
:10029400DA625A6842F020025A601A4A136843F438
:1002A400802313607047012B0DD0022B15D0032B34
:1002B400D5D1134B5A6842F080725A605A6842F0A2
:1002C40000725A60CBE70E4B5A6842F080725A6053
:1002D4005A6822F000725A60C1E7094B5A6822F04A
:1002E40080725A605A6842F000725A60B7E7044A52
:1002F400936843F002039360BAE700BF00380240FA
:100304000020014000E100E010B582B00446204B1B
:100314005863002107290ADC8C4201D00131F9E736
:10032400002300930222C9B21A4800F039F8082CBD
:1003340003D0092C0CD0002114E0002100910123EA
:100344000222154800F02CF8114B08225A63F2E7F8
:10035400002300930123022219460F4800F020F8DD
:10036400E9E7013105290BDC01F10A039C42F8D1CC
:100374000023009302231A46C9B2084800F010F87B
:10038400034A936843F08043936002B010BD00BFFA
:100394000020014000000240000402400008024026
:1003A400F0B49DF81070274E346B012505FA03F361
:1003B4001C433463AA4217D062BB0268490001237C
:1003C40003FA01F6F443224002600268194403FA76
:1003D40001F1CD432A400260AFB1C3681E43C66039
:1003E400C3681D40C5600CE00268A94005FA01F429
:1003F400224302600268294405FA01F122EA01015C
:100404000160F0BC7047C3681943C160C3681C40F5
:10041400C460F6E7022AF4D104684900012202FA12
:1004240001F3DB431C4004600468114402FA01F147
:100434000C430460C26822EA0101C160C26813402F
:10044400C360DEE700380240DFF834D00D480E49BF
:100454000E4A002302E0D458C4500433C4188C421A
:10046400F9D30B4A0B4C002301E013600432A2427F
:10047400FBD3FFF7D3FE00F011F8FFF7A9FE704796
:1004840000000120000000200000002008050008F2
:100494000000002020000020FEE7000070B50D4E93
:1004A4000D4CA41BA4100025A54209D10B4E0C4CE5
:1004B40000F018F8A41BA4100025A54205D170BDB6
:1004C40056F8253098470135EEE756F82530984719
:1004D4000135F2E7000500080005000800050008E2
:1004E40004050008F8B500BFF8BC08BC9E46704778
:0C04F400F8B500BFF8BC08BC9E4670477D
:04050000B901000835
:040504009501000855
:040000050800044D9E
:00000001FF
